{
  "contractName": "BC1",
  "abi": [
    {
      "anonymous": false,
      "inputs": [
        {
          "indexed": false,
          "internalType": "string",
          "name": "proof",
          "type": "string"
        }
      ],
      "name": "VehicleAdded",
      "type": "event"
    },
    {
      "inputs": [
        {
          "internalType": "string",
          "name": "_brand",
          "type": "string"
        },
        {
          "internalType": "string",
          "name": "_model",
          "type": "string"
        },
        {
          "internalType": "uint16",
          "name": "_year",
          "type": "uint16"
        },
        {
          "internalType": "string",
          "name": "_vin",
          "type": "string"
        },
        {
          "internalType": "string",
          "name": "_hashedVIN",
          "type": "string"
        },
        {
          "internalType": "string",
          "name": "_encryptedVIN",
          "type": "string"
        },
        {
          "internalType": "string",
          "name": "_publicKey",
          "type": "string"
        },
        {
          "internalType": "string",
          "name": "_privateKey",
          "type": "string"
        },
        {
          "internalType": "string",
          "name": "_taSignature",
          "type": "string"
        },
        {
          "internalType": "string",
          "name": "_proof",
          "type": "string"
        }
      ],
      "name": "addVehicle",
      "outputs": [],
      "stateMutability": "nonpayable",
      "type": "function"
    },
    {
      "inputs": [
        {
          "internalType": "string",
          "name": "_proof",
          "type": "string"
        }
      ],
      "name": "getVehicle",
      "outputs": [
        {
          "internalType": "string",
          "name": "brand",
          "type": "string"
        },
        {
          "internalType": "string",
          "name": "model",
          "type": "string"
        },
        {
          "internalType": "uint16",
          "name": "year",
          "type": "uint16"
        },
        {
          "internalType": "string",
          "name": "vin",
          "type": "string"
        },
        {
          "internalType": "string",
          "name": "hashedVIN",
          "type": "string"
        },
        {
          "internalType": "string",
          "name": "encryptedVIN",
          "type": "string"
        },
        {
          "internalType": "string",
          "name": "publicKey",
          "type": "string"
        },
        {
          "internalType": "string",
          "name": "privateKey",
          "type": "string"
        },
        {
          "internalType": "string",
          "name": "taSignature",
          "type": "string"
        }
      ],
      "stateMutability": "view",
      "type": "function"
    }
  ],
  "bytecode": "0x6080806040523461001657610f81908161001b8239f35b5f80fdfe60806040526004361015610011575f80fd5b5f3560e01c8063047fd57914610b8c5763b666f7f11461002f575f80fd5b34610b8857610140366003190112610b88576004356001600160401b038111610b8857610060903690600401610dd7565b6024356001600160401b038111610b885761007f903690600401610dd7565b906044359161ffff83168303610b88576064356001600160401b038111610b88576100ae903690600401610dd7565b6084356001600160401b038111610b88576100cd903690600401610dd7565b60a4356001600160401b038111610b88576100ec903690600401610dd7565b60c4356001600160401b038111610b885761010b903690600401610dd7565b9160e4356001600160401b038111610b885761012b903690600401610dd7565b93610104356001600160401b038111610b885761014c903690600401610dd7565b95610124356001600160401b038111610b885761016d903690600401610dd7565b9861019e600361018c60208d8160405193828580945193849201610e2c565b5f818301528101030190200154610e72565b610b335761ffff91604051996101b38b610d9a565b8a5260208a01521660408801526060870152608086015260a085015260c084015260e083015261010082015260405160208184516101f48183858901610e2c565b81015f81520301902081519283516001600160401b03811161060b5761021a8354610e72565b601f8111610af2575b506020601f8211600114610a8d5781929394955f92610a82575b50508160011b915f199060031b1c19161782555b60208301519283516001600160401b03811161060b576102746001850154610e72565b601f8111610a3e575b506020601f82116001146109d35781929394955f926109c8575b50508160011b915f199060031b1c19161760018401555b6002830161ffff60408301511661ffff1982541617905560608101519283516001600160401b03811161060b576102e86003830154610e72565b601f8111610984575b506020601f82116001146109195781929394955f9261090e575b50508160011b915f199060031b1c19161760038201555b60808201519283516001600160401b03811161060b576103456004840154610e72565b601f81116108ca575b506020601f821160011461085f5781929394955f92610854575b50508160011b915f199060031b1c19161760048301555b60a08301519283516001600160401b03811161060b576103a26005850154610e72565b601f8111610810575b506020601f82116001146107a55781929394955f9261079a575b50508160011b915f199060031b1c19161760058401555b60c08101519283516001600160401b03811161060b576103ff6006830154610e72565b601f8111610756575b506020601f82116001146106eb5781929394955f926106e0575b50508160011b915f199060031b1c19161760068201555b60e08201518051906001600160401b03821161060b5761045c6007840154610e72565b601f811161069c575b50602090601f831160011461062a57918061010094926008945f9261061f575b50508160011b915f199060031b1c19161760078201555b019101518051906001600160401b03821161060b576104bb8354610e72565b601f81116105c6575b50602090601f831160011461053c57918061052c94927f60c6f024ece921071a8e14fc926c6e0763e01d8938f61589a102205bb5dfdc4196945f92610531575b50508160011b915f199060031b1c19161790555b604051918291602083526020830190610e4d565b0390a1005b015190505f80610504565b90601f19831691845f5260205f20925f5b8181106105ae57509260019285927f60c6f024ece921071a8e14fc926c6e0763e01d8938f61589a102205bb5dfdc41989661052c989610610596575b505050811b019055610518565b01515f1960f88460031b161c191690555f8080610589565b9293602060018192878601518155019501930161054d565b835f5260205f20601f840160051c81019160208510610601575b601f0160051c01905b8181106105f657506104c4565b5f81556001016105e9565b90915081906105e0565b634e487b7160e01b5f52604160045260245ffd5b015190505f80610485565b90600784015f5260205f20915f5b601f1985168110610684575092610100949260019260089583601f1981161061066c575b505050811b01600782015561049c565b01515f1960f88460031b161c191690555f808061065c565b91926020600181928685015181550194019201610638565b600784015f5260205f20601f840160051c8101602085106106d9575b601f830160051c820181106106ce575050610465565b5f81556001016106b8565b50806106b8565b015190505f80610422565b600683015f5260205f20905f5b601f198416811061073e575060019394959683601f19811610610726575b505050811b016006820155610439565b01515f1960f88460031b161c191690555f8080610716565b9091602060018192858b0151815501930191016106f8565b600683015f5260205f20601f830160051c810160208410610793575b601f830160051c82018110610788575050610408565b5f8155600101610772565b5080610772565b015190505f806103c5565b600585015f5260205f20905f5b601f19841681106107f8575060019394959683601f198116106107e0575b505050811b0160058401556103dc565b01515f1960f88460031b161c191690555f80806107d0565b9091602060018192858b0151815501930191016107b2565b600585015f5260205f20601f830160051c81016020841061084d575b601f830160051c820181106108425750506103ab565b5f815560010161082c565b508061082c565b015190505f80610368565b600484015f5260205f20905f5b601f19841681106108b2575060019394959683601f1981161061089a575b505050811b01600483015561037f565b01515f1960f88460031b161c191690555f808061088a565b9091602060018192858b01518155019301910161086c565b600484015f5260205f20601f830160051c810160208410610907575b601f830160051c820181106108fc57505061034e565b5f81556001016108e6565b50806108e6565b015190505f8061030b565b600383015f5260205f20905f5b601f198416811061096c575060019394959683601f19811610610954575b505050811b016003820155610322565b01515f1960f88460031b161c191690555f8080610944565b9091602060018192858b015181550193019101610926565b600383015f5260205f20601f830160051c8101602084106109c1575b601f830160051c820181106109b65750506102f1565b5f81556001016109a0565b50806109a0565b015190505f80610297565b600185015f5260205f20905f5b601f1984168110610a26575060019394959683601f19811610610a0e575b505050811b0160018401556102ae565b01515f1960f88460031b161c191690555f80806109fe565b9091602060018192858b0151815501930191016109e0565b600185015f5260205f20601f830160051c810160208410610a7b575b601f830160051c82018110610a7057505061027d565b5f8155600101610a5a565b5080610a5a565b015190505f8061023d565b835f5260205f20905f5b601f1984168110610ada575060019394959683601f19811610610ac2575b505050811b018255610251565b01515f1960f88460031b161c191690555f8080610ab5565b9091602060018192858b015181550193019101610a97565b835f5260205f20601f830160051c810160208410610b2c575b601f830160051c82018110610b21575050610223565b5f8155600101610b0b565b5080610b0b565b60405162461bcd60e51b815260206004820152602760248201527f56656869636c6520616c7265616479206578697374732077697468207468697360448201526610383937b7b31760c91b6064820152608490fd5b5f80fd5b34610b8857602080600319360112610b88576004356001600160401b038111610b885781610bc1610bd4923690600401610dd7565b8160405193828580945193849201610e2c565b81015f81520301902060405190610bea82610d9a565b610bf381610eaa565b8252610c0160018201610eaa565b9183810192835261ffff806002840154169260408301938452610c2660038201610eaa565b60608401908152610c3960048301610eaa565b60808501908152610c4c60058401610eaa565b9060a08601918252610c6060068501610eaa565b9260c08701938452610c876008610c7960078801610eaa565b9660e08a0197885201610eaa565b956101009788810197885282515115610d4557519951985116905191519251935194519551976040519a8b9a610120808d528c01610cc491610e4d565b908b8203908c0152610cd591610e4d565b9060408a015288810360608a0152610cec91610e4d565b8781036080890152610cfd91610e4d565b86810360a0880152610d0e91610e4d565b85810360c0870152610d1f91610e4d565b84810360e0860152610d3091610e4d565b9083820390840152610d4191610e4d565b0390f35b60405162461bcd60e51b8152600481018d9052602760248201527f56656869636c6520646f6573206e6f742065786973742077697468207468697360448201526610383937b7b31760c91b6064820152608490fd5b61012081019081106001600160401b0382111761060b57604052565b90601f801991011681019081106001600160401b0382111761060b57604052565b81601f82011215610b88578035906001600160401b03821161060b5760405192610e0b601f8401601f191660200185610db6565b82845260208383010111610b8857815f926020809301838601378301015290565b5f5b838110610e3d5750505f910152565b8181015183820152602001610e2e565b90602091610e6681518092818552858086019101610e2c565b601f01601f1916010190565b90600182811c92168015610ea0575b6020831014610e8c57565b634e487b7160e01b5f52602260045260245ffd5b91607f1691610e81565b9060405191825f8254610ebc81610e72565b9081845260209460019182811690815f14610f295750600114610eeb575b505050610ee992500383610db6565b565b5f90815285812095935091905b818310610f11575050610ee993508201015f8080610eda565b85548884018501529485019487945091830191610ef8565b92505050610ee994925060ff191682840152151560051b8201015f8080610eda56fea2646970667358221220b47849894688a9ddcb5bd4c2c8f885f5c4dffafeb4167b20b47a2196aadc724564736f6c63430008150033",
  "immutableReferences": {},
  "source": "// SPDX-License-Identifier: MIT\r\npragma solidity ^0.8.21;\r\n\r\ncontract BC1 {\r\n    struct Vehicle {\r\n        string brand;\r\n        string model;\r\n        uint16 year;\r\n        string vin;\r\n        string hashedVIN;\r\n        string encryptedVIN;\r\n        string publicKey;\r\n        string privateKey; // Added private key\r\n        string taSignature;\r\n    }\r\n\r\n    mapping(string => Vehicle) private vehicles; // Mapping proof to vehicle data (proof is now a string)\r\n\r\n    // Event to emit when a vehicle is added\r\n    event VehicleAdded(string proof);\r\n\r\n    function addVehicle(\r\n        string memory _brand,\r\n        string memory _model,\r\n        uint16 _year,\r\n        string memory _vin,\r\n        string memory _hashedVIN,\r\n        string memory _encryptedVIN,\r\n        string memory _publicKey,\r\n        string memory _privateKey, // Private key added as input parameter\r\n        string memory _taSignature,\r\n        string memory _proof \r\n    ) public {\r\n        require(bytes(vehicles[_proof].vin).length == 0, \"Vehicle already exists with this proof.\");\r\n\r\n        vehicles[_proof] = Vehicle({\r\n            brand: _brand,\r\n            model: _model,\r\n            year: _year,\r\n            vin: _vin,\r\n            hashedVIN: _hashedVIN,\r\n            encryptedVIN: _encryptedVIN,\r\n            publicKey: _publicKey,\r\n            privateKey: _privateKey, // Store private key\r\n            taSignature: _taSignature\r\n        });\r\n\r\n        emit VehicleAdded(_proof);\r\n    }\r\n\r\n    function getVehicle(string memory _proof) public view returns (\r\n        string memory brand,\r\n        string memory model,\r\n        uint16 year,\r\n        string memory vin,\r\n        string memory hashedVIN,\r\n        string memory encryptedVIN,\r\n        string memory publicKey,\r\n        string memory privateKey, // Added private key to return\r\n        string memory taSignature\r\n    ) {\r\n        Vehicle memory vehicle = vehicles[_proof];\r\n        require(bytes(vehicle.vin).length != 0, \"Vehicle does not exist with this proof.\");\r\n\r\n        return (\r\n            vehicle.brand,\r\n            vehicle.model,\r\n            vehicle.year,\r\n            vehicle.vin,\r\n            vehicle.hashedVIN,\r\n            vehicle.encryptedVIN,\r\n            vehicle.publicKey,\r\n            vehicle.privateKey, // Return private key\r\n            vehicle.taSignature\r\n        );\r\n    }\r\n}\r\n",
  "sourcePath": "D:\\Documents\\Research - Done\\Digital Twin\\The Simulation\\contracts\\BC1.sol",
  "compiler": {
    "name": "solc",
    "version": "0.8.21+commit.d9974bed.Emscripten.clang"
  },
  "schemaVersion": "3.4.16",
  "updatedAt": "2025-07-31T20:32:38.620Z",
  "devdoc": {
    "kind": "dev",
    "methods": {},
    "version": 1
  },
  "userdoc": {
    "kind": "user",
    "methods": {},
    "version": 1
  }
}