{
  "contractName": "BC2",
  "abi": [
    {
      "anonymous": false,
      "inputs": [
        {
          "indexed": false,
          "internalType": "string",
          "name": "temp_vehicle_ID",
          "type": "string"
        },
        {
          "indexed": false,
          "internalType": "string",
          "name": "proof",
          "type": "string"
        },
        {
          "indexed": false,
          "internalType": "string",
          "name": "outcome",
          "type": "string"
        },
        {
          "indexed": false,
          "internalType": "string",
          "name": "node",
          "type": "string"
        }
      ],
      "name": "AuthLogAdded",
      "type": "event"
    },
    {
      "inputs": [],
      "name": "authLogCount",
      "outputs": [
        {
          "internalType": "uint256",
          "name": "",
          "type": "uint256"
        }
      ],
      "stateMutability": "view",
      "type": "function"
    },
    {
      "inputs": [
        {
          "internalType": "string",
          "name": "",
          "type": "string"
        }
      ],
      "name": "authLogs",
      "outputs": [
        {
          "internalType": "string",
          "name": "temp_vehicle_ID",
          "type": "string"
        },
        {
          "internalType": "uint256",
          "name": "timestamp",
          "type": "uint256"
        },
        {
          "internalType": "string",
          "name": "date",
          "type": "string"
        },
        {
          "internalType": "string",
          "name": "proof",
          "type": "string"
        },
        {
          "internalType": "string",
          "name": "outcome",
          "type": "string"
        },
        {
          "internalType": "string",
          "name": "VIN",
          "type": "string"
        },
        {
          "internalType": "string",
          "name": "hashed_VIN",
          "type": "string"
        },
        {
          "internalType": "string",
          "name": "sessionKey",
          "type": "string"
        },
        {
          "internalType": "string",
          "name": "node",
          "type": "string"
        }
      ],
      "stateMutability": "view",
      "type": "function"
    },
    {
      "inputs": [
        {
          "internalType": "uint256",
          "name": "",
          "type": "uint256"
        }
      ],
      "name": "tempVehicleIDs",
      "outputs": [
        {
          "internalType": "string",
          "name": "",
          "type": "string"
        }
      ],
      "stateMutability": "view",
      "type": "function"
    },
    {
      "inputs": [
        {
          "internalType": "string",
          "name": "temp_vehicle_ID",
          "type": "string"
        },
        {
          "internalType": "string",
          "name": "proof",
          "type": "string"
        },
        {
          "internalType": "string",
          "name": "outcome",
          "type": "string"
        },
        {
          "internalType": "string",
          "name": "VIN",
          "type": "string"
        },
        {
          "internalType": "string",
          "name": "hashed_VIN",
          "type": "string"
        },
        {
          "internalType": "string",
          "name": "sessionKey",
          "type": "string"
        },
        {
          "internalType": "string",
          "name": "date",
          "type": "string"
        },
        {
          "internalType": "string",
          "name": "node",
          "type": "string"
        }
      ],
      "name": "addAuthLog",
      "outputs": [],
      "stateMutability": "nonpayable",
      "type": "function"
    }
  ],
  "bytecode": "0x6080806040523461001a575f60025561093b908161001f8239f35b5f80fdfe60406080815260049081361015610014575f80fd5b5f90813560e01c80633eee3fb31461046257806353aaf571146103fa5780637f908dc7146103dc5763bfd7087c1461004a575f80fd5b346103d857610100806003193601126103d45767ffffffffffffffff9184358381116103d05761007d9036908701610606565b926024358181116103cc576100959036908801610606565b906044358181116103c8576100ad9036908901610606565b916064358281116103c4576100c59036908a01610606565b916084358181116103c0576100dd9036908b01610606565b9560a4358281116103bc576100f59036908c01610606565b60c4358381116103b85761010c9036908d01610606565b9760e4358481116103b4578c61012491369101610606565b986002545f1981146103a0576001016002558751926020978d898b0195862061014b6107c8565b8051908c01201415905061038b57925b8d8a5186206101686107c8565b8051908c01201415905061037657935b895190206101846107c8565b8051908a01200361036157935b89519561012087019081118782101761034c578b95949392878f8f8c91908f918f979284938f9882528387528487019642885282810198895260608101998a52608081019a8b5260a081019b8c5260c081019c8d5260e081019d8e52019c8d5251938483819451928391019161020692610660565b820190815203019020985161021b908a6107fc565b5160018901555161022f90600289016107fc565b5161023d90600388016107fc565b5161024a90868f016107fc565b5161025890600586016107fc565b5161026690600685016107fc565b5161027490600784016107fc565b51610281916008016107fc565b60015468010000000000000000811015610339578060016102a5920160015561077f565b6103275793610321936103066102f99794610313946102e68b7ff28d9bb3120692943004f5bd3c2c349e3c3bf8c2bcd105100b1fd6df9311f37c9c9a6107fc565b8451998a9960808b5260808b019061075a565b91898303908a015261075a565b918683039087015261075a565b90838203606085015261075a565b0390a180f35b634e487b7160e01b8852878952602488fd5b634e487b7160e01b885260418952602488fd5b5050634e487b7160e01b8c5260418d5260248cfd5b50885161036d816105b4565b8c815293610191565b508951610382816105b4565b8d815293610178565b508951610397816105b4565b8d81529261015b565b50634e487b7160e01b8c5260118d5260248cfd5b8b80fd5b8a80fd5b8980fd5b8880fd5b8780fd5b8680fd5b8580fd5b8480fd5b8280fd5b5080fd5b50346103d857816003193601126103d8576020906002549051908152f35b50903461045f57602036600319011261045f5782356001548110156103d8576104229061077f565b93909361044d5761044983610436866106b9565b905191829160208352602083019061075a565b0390f35b634e487b7160e01b8252819052602490fd5b80fd5b5091903461045f57602036600319011261045f57813567ffffffffffffffff81116103d8576104949036908401610606565b83519181838093516020819301916104ab92610660565b8201908152036020019020906104c0826106b9565b91600181015491600282016104d4906106b9565b906104e1600384016106b9565b9083016104ed906106b9565b6104f9600585016106b9565b91610506600686016106b9565b93610513600787016106b9565b95600801610520906106b9565b968951998a99610120808c528b016105379161075a565b9160208b0152898203908a015261054d9161075a565b878103606089015261055e9161075a565b868103608088015261056f9161075a565b85810360a08701526105809161075a565b84810360c08601526105919161075a565b83810360e08501526105a29161075a565b8281036101008401526104499161075a565b6020810190811067ffffffffffffffff8211176105d057604052565b634e487b7160e01b5f52604160045260245ffd5b90601f8019910116810190811067ffffffffffffffff8211176105d057604052565b81601f8201121561065c5780359067ffffffffffffffff82116105d0576040519261063b601f8401601f1916602001856105e4565b8284526020838301011161065c57815f926020809301838601378301015290565b5f80fd5b5f5b8381106106715750505f910152565b8181015183820152602001610662565b90600182811c921680156106af575b602083101461069b57565b634e487b7160e01b5f52602260045260245ffd5b91607f1691610690565b9060405191825f82546106cb81610681565b9081845260209460019182811690815f1461073857506001146106fa575b5050506106f8925003836105e4565b565b5f90815285812095935091905b8183106107205750506106f893508201015f80806106e9565b85548884018501529485019487945091830191610707565b925050506106f894925060ff191682840152151560051b8201015f80806106e9565b9060209161077381518092818552858086019101610660565b601f01601f1916010190565b6001548110156107b45760015f527fb10e2d527612073b26eecdfd717e6a320cf44b4afac2b0732d9fcbe2b7fa0cf601905f90565b634e487b7160e01b5f52603260045260245ffd5b604051906040820182811067ffffffffffffffff8211176105d057604052600782526614dd58d8d9595960ca1b6020830152565b919091825167ffffffffffffffff81116105d05761081a8254610681565b601f81116108be575b50602080601f831160011461085e5750819293945f92610853575b50508160011b915f199060031b1c1916179055565b015190505f8061083e565b90601f19831695845f52825f20925f905b8882106108a65750508360019596971061088e575b505050811b019055565b01515f1960f88460031b161c191690555f8080610884565b8060018596829496860151815501950193019061086f565b5f83815260208120601f840160051c810192602085106108fb575b601f0160051c01915b8281106108f0575050610823565b8181556001016108e2565b90925082906108d956fea264697066735822122065204955d83b9465028cff919cf4c2b60d035a100ed23fdf53159923697682e264736f6c63430008150033",
  "immutableReferences": {},
  "source": "// SPDX-License-Identifier: MIT\r\npragma solidity ^0.8.0;\r\n\r\ncontract BC2 {\r\n    struct AuthLog {\r\n        string temp_vehicle_ID;\r\n        uint256 timestamp;\r\n        string date;\r\n        string proof;\r\n        string outcome;\r\n        string VIN;             // Only set if the outcome is \"Succeed\"\r\n        string hashed_VIN;      // Only set if the outcome is \"Succeed\"\r\n        string sessionKey;      // Only set if the outcome is \"Succeed\"\r\n        string node;            // New field for node identifier\r\n    }\r\n\r\n    mapping(string => AuthLog) public authLogs;  // Mapping from temporary vehicle ID to authentication log\r\n    string[] public tempVehicleIDs;               // Array to store vehicle IDs for iteration\r\n    uint256 public authLogCount = 0;\r\n\r\n    // Event to log the addition of authentication data (for off-chain tracking)\r\n    event AuthLogAdded(string temp_vehicle_ID, string proof, string outcome, string node);\r\n\r\n    // Add authentication log to BC2\r\n    function addAuthLog(\r\n        string memory temp_vehicle_ID,\r\n        string memory proof,\r\n        string memory outcome,\r\n        string memory VIN,        // Only included if outcome is \"Succeed\"\r\n        string memory hashed_VIN, // Only included if outcome is \"Succeed\"\r\n        string memory sessionKey, // Only included if outcome is \"Succeed\"\r\n        string memory date,\r\n        string memory node        // Node identifier\r\n    ) public {\r\n        authLogCount++;\r\n\r\n        // Determine the values for success or failure\r\n        string memory actualVIN = keccak256(bytes(outcome)) == keccak256(bytes(\"Succeed\")) ? VIN : \"\";\r\n        string memory actualHashedVIN = keccak256(bytes(outcome)) == keccak256(bytes(\"Succeed\")) ? hashed_VIN : \"\";\r\n        string memory actualSessionKey = keccak256(bytes(outcome)) == keccak256(bytes(\"Succeed\")) ? sessionKey : \"\";\r\n\r\n        // Save the authentication log\r\n        authLogs[temp_vehicle_ID] = AuthLog({\r\n            temp_vehicle_ID: temp_vehicle_ID,\r\n            timestamp: block.timestamp,\r\n            date: date,\r\n            proof: proof,\r\n            outcome: outcome,\r\n            VIN: actualVIN,\r\n            hashed_VIN: actualHashedVIN,\r\n            sessionKey: actualSessionKey,\r\n            node: node\r\n        });\r\n\r\n        // Store the temporary vehicle ID for future iteration\r\n        tempVehicleIDs.push(temp_vehicle_ID);\r\n\r\n        // Emit event for the new log addition\r\n        emit AuthLogAdded(temp_vehicle_ID, proof, outcome, node);\r\n    }\r\n}\r\n",
  "sourcePath": "D:\\Documents\\Research - Done\\Digital Twin\\The Simulation\\contracts\\BC2.sol",
  "compiler": {
    "name": "solc",
    "version": "0.8.21+commit.d9974bed.Emscripten.clang"
  },
  "schemaVersion": "3.4.16",
  "updatedAt": "2025-07-31T20:32:38.624Z",
  "devdoc": {
    "kind": "dev",
    "methods": {},
    "version": 1
  },
  "userdoc": {
    "kind": "user",
    "methods": {},
    "version": 1
  }
}