{
  "contractName": "BC3",
  "abi": [
    {
      "inputs": [
        {
          "internalType": "uint256",
          "name": "",
          "type": "uint256"
        }
      ],
      "name": "sessions",
      "outputs": [
        {
          "internalType": "string",
          "name": "nodeId",
          "type": "string"
        },
        {
          "internalType": "string",
          "name": "commType",
          "type": "string"
        },
        {
          "internalType": "string",
          "name": "sessionKey",
          "type": "string"
        },
        {
          "internalType": "string",
          "name": "encryptionAlgo",
          "type": "string"
        },
        {
          "internalType": "string",
          "name": "processingLatency",
          "type": "string"
        },
        {
          "internalType": "string",
          "name": "date",
          "type": "string"
        },
        {
          "internalType": "string",
          "name": "time",
          "type": "string"
        },
        {
          "internalType": "string",
          "name": "primaryVTempId",
          "type": "string"
        },
        {
          "internalType": "string",
          "name": "primaryVVin",
          "type": "string"
        },
        {
          "internalType": "string",
          "name": "secondaryDeviceType",
          "type": "string"
        },
        {
          "internalType": "string",
          "name": "secondaryDeviceTempId",
          "type": "string"
        },
        {
          "internalType": "string",
          "name": "secondaryDeviceId",
          "type": "string"
        },
        {
          "internalType": "string",
          "name": "latitude",
          "type": "string"
        },
        {
          "internalType": "string",
          "name": "longitude",
          "type": "string"
        },
        {
          "internalType": "string",
          "name": "altitude",
          "type": "string"
        },
        {
          "internalType": "string",
          "name": "speed",
          "type": "string"
        },
        {
          "internalType": "string",
          "name": "direction",
          "type": "string"
        },
        {
          "internalType": "string",
          "name": "alerts",
          "type": "string"
        },
        {
          "internalType": "string",
          "name": "otherData",
          "type": "string"
        },
        {
          "internalType": "string",
          "name": "communicationMode",
          "type": "string"
        }
      ],
      "stateMutability": "view",
      "type": "function"
    },
    {
      "inputs": [
        {
          "internalType": "string",
          "name": "",
          "type": "string"
        },
        {
          "internalType": "uint256",
          "name": "",
          "type": "uint256"
        }
      ],
      "name": "vinToSessions",
      "outputs": [
        {
          "internalType": "uint256",
          "name": "",
          "type": "uint256"
        }
      ],
      "stateMutability": "view",
      "type": "function"
    },
    {
      "inputs": [
        {
          "internalType": "string",
          "name": "_nodeId",
          "type": "string"
        },
        {
          "internalType": "string",
          "name": "_commType",
          "type": "string"
        },
        {
          "internalType": "string",
          "name": "_sessionKey",
          "type": "string"
        },
        {
          "internalType": "string",
          "name": "_encryptionAlgo",
          "type": "string"
        },
        {
          "internalType": "string",
          "name": "_processingLatency",
          "type": "string"
        },
        {
          "internalType": "string",
          "name": "_date",
          "type": "string"
        },
        {
          "internalType": "string",
          "name": "_time",
          "type": "string"
        },
        {
          "internalType": "string",
          "name": "_tempId",
          "type": "string"
        },
        {
          "internalType": "string",
          "name": "_vin",
          "type": "string"
        },
        {
          "internalType": "string",
          "name": "_rType",
          "type": "string"
        },
        {
          "internalType": "string",
          "name": "_rTempId",
          "type": "string"
        },
        {
          "internalType": "string",
          "name": "_rId",
          "type": "string"
        },
        {
          "internalType": "string",
          "name": "_latitude",
          "type": "string"
        },
        {
          "internalType": "string",
          "name": "_longitude",
          "type": "string"
        },
        {
          "internalType": "string",
          "name": "_altitude",
          "type": "string"
        },
        {
          "internalType": "string",
          "name": "_speed",
          "type": "string"
        },
        {
          "internalType": "string",
          "name": "_direction",
          "type": "string"
        },
        {
          "internalType": "string",
          "name": "_alerts",
          "type": "string"
        },
        {
          "internalType": "string",
          "name": "_otherData",
          "type": "string"
        },
        {
          "internalType": "string",
          "name": "_communicationMode",
          "type": "string"
        }
      ],
      "name": "storeSession",
      "outputs": [],
      "stateMutability": "nonpayable",
      "type": "function"
    },
    {
      "inputs": [
        {
          "internalType": "string",
          "name": "_vin",
          "type": "string"
        }
      ],
      "name": "getSessionsByVIN",
      "outputs": [
        {
          "components": [
            {
              "internalType": "string",
              "name": "nodeId",
              "type": "string"
            },
            {
              "internalType": "string",
              "name": "commType",
              "type": "string"
            },
            {
              "internalType": "string",
              "name": "sessionKey",
              "type": "string"
            },
            {
              "internalType": "string",
              "name": "encryptionAlgo",
              "type": "string"
            },
            {
              "internalType": "string",
              "name": "processingLatency",
              "type": "string"
            },
            {
              "internalType": "string",
              "name": "date",
              "type": "string"
            },
            {
              "internalType": "string",
              "name": "time",
              "type": "string"
            },
            {
              "internalType": "string",
              "name": "primaryVTempId",
              "type": "string"
            },
            {
              "internalType": "string",
              "name": "primaryVVin",
              "type": "string"
            },
            {
              "internalType": "string",
              "name": "secondaryDeviceType",
              "type": "string"
            },
            {
              "internalType": "string",
              "name": "secondaryDeviceTempId",
              "type": "string"
            },
            {
              "internalType": "string",
              "name": "secondaryDeviceId",
              "type": "string"
            },
            {
              "internalType": "string",
              "name": "latitude",
              "type": "string"
            },
            {
              "internalType": "string",
              "name": "longitude",
              "type": "string"
            },
            {
              "internalType": "string",
              "name": "altitude",
              "type": "string"
            },
            {
              "internalType": "string",
              "name": "speed",
              "type": "string"
            },
            {
              "internalType": "string",
              "name": "direction",
              "type": "string"
            },
            {
              "internalType": "string",
              "name": "alerts",
              "type": "string"
            },
            {
              "internalType": "string",
              "name": "otherData",
              "type": "string"
            },
            {
              "internalType": "string",
              "name": "communicationMode",
              "type": "string"
            }
          ],
          "internalType": "struct BC3.CommunicationSession[]",
          "name": "",
          "type": "tuple[]"
        }
      ],
      "stateMutability": "view",
      "type": "function"
    },
    {
      "inputs": [],
      "name": "getTotalSessions",
      "outputs": [
        {
          "internalType": "uint256",
          "name": "",
          "type": "uint256"
        }
      ],
      "stateMutability": "view",
      "type": "function"
    }
  ],
  "bytecode": "0x6080806040523461001657612730908161001b8239f35b5f80fdfe6102806040526004361015610012575f80fd5b5f3560e01c80630e5ad678146109a557806349c9dea01461092c5780636073e4b71461091057806383c4b7a3146105cb5763d4b655e114610051575f80fd5b346105c7576020806003193601126105c7576004356001600160401b0381116105c7576100829036906004016124e5565b81610096604051928381519384920161253a565b810190828160019384815203019020906040518083858295549384815201905f52855f20925f5b85888383106105b25785826100d4828803836124c4565b8151906100f96100e3836126cf565b926100f160405194856124c4565b8084526126cf565b601f190192845f5b858110610518575093505f90825b610356575b505090604051928392818401828552835180915260408501928060408360051b8801019501935f905b83821061014a5787870388f35b918496819592949698508190603f198b82030185528951906102808251908083528201610176916126aa565b83830151908281038584015261018b916126aa565b60408301519082810360408401526101a2916126aa565b6060908184015191838203908401526101ba916126aa565b6080908184015191838203908401526101d2916126aa565b60a0908184015191838203908401526101ea916126aa565b60c090818401519183820390840152610202916126aa565b60e08301519082810360e0840152610219916126aa565b61010090818401519183820390840152610232916126aa565b6101209081840151918382039084015261024b916126aa565b61014090818401519183820390840152610264916126aa565b6101609081840151918382039084015261027d916126aa565b61018090818401519183820390840152610296916126aa565b6101a0908184015191838203908401526102af916126aa565b6101c0908184015191838203908401526102c8916126aa565b6101e0908184015191838203908401526102e1916126aa565b610200908184015191838203908401526102fa916126aa565b61022090818401519183820390840152610313916126aa565b6102409081840151918382039084015261032c916126aa565b906102608093015192818303910152610344916126aa565b9801920192018796959391949261013d565b80518210156105135761037261036c83836126e6565b51612584565b506104d1601360405192610385846124a8565b61038e81612609565b845261039b878201612609565b898501526103ab60028201612609565b60408501526103bc60038201612609565b60608501526103cd60048201612609565b60808501526103de60058201612609565b60a08501526103ef60068201612609565b60c085015261040060078201612609565b60e085015261041160088201612609565b61010085015261042360098201612609565b610120850152610435600a8201612609565b610140850152610447600b8201612609565b610160850152610459600c8201612609565b61018085015261046b600d8201612609565b6101a085015261047d600e8201612609565b6101c085015261048f600f8201612609565b6101e08501526104a160108201612609565b6102008501526104b360118201612609565b6102208501526104c560128201612609565b61024085015201612609565b6102608201526104e183866126e6565b526104ec82856126e6565b505f1982146104ff57828092019161010f565b634e487b7160e01b5f52601160045260245ffd5b610114565b604051610524816124a8565b6060808252808483015280604083015280808301528060808301528060a08301528060c08301528060e08301528061010083015280610120830152806101408301528061016083015280610180830152806101a0830152806101c0830152806101e0830152806102008301528061022083015280610240830152610260820152828287010152018590610101565b865485529581019588955090930192016100bd565b5f80fd5b346105c75760203660031901126105c7576004355f548110156105c7576105f190612584565b506105fb81612609565b61060760018301612609565b6102205261061760028301612609565b6102405261062760038301612609565b6102605261063760048301612609565b61064360058401612609565b61064f60068501612609565b61065b60078601612609565b61066760088701612609565b61067360098801612609565b90610680600a8901612609565b9261068d600b8a01612609565b9461069a600c8b01612609565b966106a7600d8c01612609565b986106b4600e8d01612609565b9a6106c1600f8e01612609565b9c6106ce60108201612609565b610180526106de60118201612609565b6101a0526106ee60128201612609565b6101e0526013016106fe90612609565b610200526040516101c052610280806101c051526101c05101610720916126aa565b6101c05181036101c05160200152610220519061073c916126aa565b6101c05181036101c051604001526102405190610758916126aa565b6101c05181036101c051606001526102605190610774916126aa565b6101c05181036101c0516080015261078b916126aa565b6101c05181036101c05160a001526107a2916126aa565b6101c05181036101c05160c001526107b9916126aa565b6101c05181036101c05160e001526107d0916126aa565b6101c05181036101c05161010001526107e8916126aa565b6101c05181036101c0516101200152610800916126aa565b6101c05181036101c0516101400152610818916126aa565b6101c05181036101c0516101600152610830916126aa565b6101c05181036101c0516101800152610848916126aa565b6101c05181036101c0516101a00152610860916126aa565b6101c05181036101c0516101c00152610878916126aa565b6101c05181036101c0516101e00152610890916126aa565b6101c05181036101c051610200015261018051906108ad916126aa565b6101c05181036101c05161022001526101a051906108ca916126aa565b6101c05181036101c05161024001526101e051906108e7916126aa565b6101c05181036101c05161026001526101c051906102005190610909916126aa565b036101c051f35b346105c7575f3660031901126105c75760205f54604051908152f35b346105c75760403660031901126105c7576004356001600160401b0381116105c75761095c9036906004016124e5565b610978602060243592816040519382858094519384920161253a565b8101600181520301902080548210156105c7576020916109979161255b565b90546040519160031b1c8152f35b346105c7576102803660031901126105c7576004356001600160401b0381116105c7576109d69036906004016124e5565b6024356001600160401b0381116105c7576109f59036906004016124e5565b610100526044356001600160401b0381116105c757610a189036906004016124e5565b610140526064356001600160401b0381116105c757610a3b9036906004016124e5565b6084356001600160401b0381116105c757610a5a9036906004016124e5565b60a4356001600160401b0381116105c757610a799036906004016124e5565b60c4356001600160401b0381116105c757610a989036906004016124e5565b60e4356001600160401b0381116105c757610ab79036906004016124e5565b610104356001600160401b0381116105c757610ad79036906004016124e5565b61016052610124356001600160401b0381116105c757610afb9036906004016124e5565b610144356001600160401b0381116105c757610b1b9036906004016124e5565b91610164356001600160401b0381116105c757610b3c9036906004016124e5565b936001600160401b0361018435116105c757610b5e36610184356004016124e5565b956001600160401b036101a435116105c757610b80366101a4356004016124e5565b976001600160401b036101c435116105c757610ba2366101c4356004016124e5565b996001600160401b036101e435116105c757610bc4366101e4356004016124e5565b9b610204356001600160401b0381116105c757610be59036906004016124e5565b6080526001600160401b0361022435116105c757610c0936610224356004016124e5565b60c0526001600160401b0361024435116105c757610c2d36610244356004016124e5565b610120526001600160401b0361026435116105c757610c5236610264356004016124e5565b60e05260405160a052610c6660a0516124a8565b60a0515261010051602060a051015261014051604060a0510152606060a0510152608060a051015260a08051015260c060a051015260e060a05101526101605161010060a051015261012060a051015261014060a051015261016060a051015261018060a05101526101a060a05101526101c060a05101526101e060a051015260805161020060a051015260c05161022060a05101526101205161024060a051015260e05161026060a05101525f54600160401b8110156114e257806001610d3092015f55612584565b6124955760a051518051906001600160401b0382116114e2578190610d5584546125d1565b601f8111612448575b50602090601f83116001146123e0575f926123d5575b50508160011b915f199060031b1c19161781555b602060a05101518051906001600160401b0382116114e2578190610daf60018501546125d1565b601f8111612385575b50602090601f8311600114612317575f9261230c575b50508160011b915f199060031b1c19161760018201555b604060a05101518051906001600160401b0382116114e2578190610e0c60028501546125d1565b601f81116122bc575b50602090601f831160011461224e575f92612243575b50508160011b915f199060031b1c19161760028201555b606060a05101518051906001600160401b0382116114e2578190610e6960038501546125d1565b601f81116121f3575b50602090601f8311600114612185575f9261217a575b50508160011b915f199060031b1c19161760038201555b608060a05101518051906001600160401b0382116114e2578190610ec660048501546125d1565b601f811161212a575b50602090601f83116001146120bc575f926120b1575b50508160011b915f199060031b1c19161760048201555b60a0805101518051906001600160401b0382116114e2578190610f2260058501546125d1565b601f8111612061575b50602090601f8311600114611ff3575f92611fe8575b50508160011b915f199060031b1c19161760058201555b60c060a05101518051906001600160401b0382116114e2578190610f7f60068501546125d1565b601f8111611f98575b50602090601f8311600114611f2a575f92611f1f575b50508160011b915f199060031b1c19161760068201555b60e060a05101518051906001600160401b0382116114e2578190610fdc60078501546125d1565b601f8111611ecf575b50602090601f8311600114611e61575f92611e56575b50508160011b915f199060031b1c19161760078201555b61010060a05101518051906001600160401b0382116114e257819061103a60088501546125d1565b601f8111611e06575b50602090601f8311600114611d98575f92611d8d575b50508160011b915f199060031b1c19161760088201555b61012060a05101518051906001600160401b0382116114e257819061109860098501546125d1565b601f8111611d3d575b50602090601f8311600114611ccf575f92611cc4575b50508160011b915f199060031b1c19161760098201555b61014060a05101518051906001600160401b0382116114e25781906110f6600a8501546125d1565b601f8111611c74575b50602090601f8311600114611c06575f92611bfb575b50508160011b915f199060031b1c191617600a8201555b61016060a05101518051906001600160401b0382116114e2578190611154600b8501546125d1565b601f8111611bab575b50602090601f8311600114611b3d575f92611b32575b50508160011b915f199060031b1c191617600b8201555b61018060a05101518051906001600160401b0382116114e25781906111b2600c8501546125d1565b601f8111611ae2575b50602090601f8311600114611a74575f92611a69575b50508160011b915f199060031b1c191617600c8201555b6101a060a05101518051906001600160401b0382116114e2578190611210600d8501546125d1565b601f8111611a19575b50602090601f83116001146119ab575f926119a0575b50508160011b915f199060031b1c191617600d8201555b6101c060a05101518051906001600160401b0382116114e257819061126e600e8501546125d1565b601f8111611950575b50602090601f83116001146118e2575f926118d7575b50508160011b915f199060031b1c191617600e8201555b6101e060a05101518051906001600160401b0382116114e25781906112cc600f8501546125d1565b601f8111611887575b50602090601f8311600114611819575f9261180e575b50508160011b915f199060031b1c191617600f8201555b61020060a05101518051906001600160401b0382116114e257819061132a60108501546125d1565b601f81116117be575b50602090601f8311600114611750575f92611745575b50508160011b915f199060031b1c19161760108201555b61022060a05101518051906001600160401b0382116114e257819061138860118501546125d1565b601f81116116f5575b50602090601f8311600114611687575f9261167c575b50508160011b915f199060031b1c19161760118201555b61024060a05101518051906001600160401b0382116114e25781906113e660128501546125d1565b601f811161162c575b50602090601f83116001146115be575f926115b3575b50508160011b915f199060031b1c19161760128201555b61026060a05101518051906001600160401b0382116114e25761144260138401546125d1565b601f811161156b575b50602090601f831160011461150157601392915f91836114f6575b50508160011b915f199060031b1c1916179101555b6040516020816101605151611496818385610160510161253a565b810160018152030190205f545f19918282019182116104ff578054600160401b8110156114e2576114cc9160018201815561255b565b909283549160031b92831b921b19161790555f80f35b634e487b7160e01b5f52604160045260245ffd5b015190508480611466565b90601f19831691601385015f5260205f20925f5b8181106115535750916001939185601396941061153b575b505050811b0191015561147b565b01515f1960f88460031b161c1916905584808061152d565b92936020600181928786015181550195019301611515565b601384015f5260205f20601f840160051c810191602085106115a9575b601f0160051c01905b81811061159e575061144b565b5f8155600101611591565b9091508190611588565b015190508380611405565b9250601284015f5260205f20905f935b601f1984168510611611576001945083601f198116106115f9575b505050811b01601282015561141c565b01515f1960f88460031b161c191690558380806115e9565b818101518355602094850194600190930192909101906115ce565b909150601284015f5260205f20601f840160051c810160208510611675575b90849392915b601f830160051c820181106116675750506113ef565b5f8155859450600101611651565b508061164b565b0151905083806113a7565b9250601184015f5260205f20905f935b601f19841685106116da576001945083601f198116106116c2575b505050811b0160118201556113be565b01515f1960f88460031b161c191690558380806116b2565b81810151835560209485019460019093019290910190611697565b909150601184015f5260205f20601f840160051c81016020851061173e575b90849392915b601f830160051c82018110611730575050611391565b5f815585945060010161171a565b5080611714565b015190508380611349565b9250601084015f5260205f20905f935b601f19841685106117a3576001945083601f1981161061178b575b505050811b016010820155611360565b01515f1960f88460031b161c1916905583808061177b565b81810151835560209485019460019093019290910190611760565b909150601084015f5260205f20601f840160051c810160208510611807575b90849392915b601f830160051c820181106117f9575050611333565b5f81558594506001016117e3565b50806117dd565b0151905083806112eb565b9250600f84015f5260205f20905f935b601f198416851061186c576001945083601f19811610611854575b505050811b01600f820155611302565b01515f1960f88460031b161c19169055838080611844565b81810151835560209485019460019093019290910190611829565b909150600f84015f5260205f20601f840160051c8101602085106118d0575b90849392915b601f830160051c820181106118c25750506112d5565b5f81558594506001016118ac565b50806118a6565b01519050838061128d565b9250600e84015f5260205f20905f935b601f1984168510611935576001945083601f1981161061191d575b505050811b01600e8201556112a4565b01515f1960f88460031b161c1916905583808061190d565b818101518355602094850194600190930192909101906118f2565b909150600e84015f5260205f20601f840160051c810160208510611999575b90849392915b601f830160051c8201811061198b575050611277565b5f8155859450600101611975565b508061196f565b01519050838061122f565b9250600d84015f5260205f20905f935b601f19841685106119fe576001945083601f198116106119e6575b505050811b01600d820155611246565b01515f1960f88460031b161c191690558380806119d6565b818101518355602094850194600190930192909101906119bb565b909150600d84015f5260205f20601f840160051c810160208510611a62575b90849392915b601f830160051c82018110611a54575050611219565b5f8155859450600101611a3e565b5080611a38565b0151905083806111d1565b9250600c84015f5260205f20905f935b601f1984168510611ac7576001945083601f19811610611aaf575b505050811b01600c8201556111e8565b01515f1960f88460031b161c19169055838080611a9f565b81810151835560209485019460019093019290910190611a84565b909150600c84015f5260205f20601f840160051c810160208510611b2b575b90849392915b601f830160051c82018110611b1d5750506111bb565b5f8155859450600101611b07565b5080611b01565b015190508380611173565b9250600b84015f5260205f20905f935b601f1984168510611b90576001945083601f19811610611b78575b505050811b01600b82015561118a565b01515f1960f88460031b161c19169055838080611b68565b81810151835560209485019460019093019290910190611b4d565b909150600b84015f5260205f20601f840160051c810160208510611bf4575b90849392915b601f830160051c82018110611be657505061115d565b5f8155859450600101611bd0565b5080611bca565b015190508380611115565b9250600a84015f5260205f20905f935b601f1984168510611c59576001945083601f19811610611c41575b505050811b01600a82015561112c565b01515f1960f88460031b161c19169055838080611c31565b81810151835560209485019460019093019290910190611c16565b909150600a84015f5260205f20601f840160051c810160208510611cbd575b90849392915b601f830160051c82018110611caf5750506110ff565b5f8155859450600101611c99565b5080611c93565b0151905083806110b7565b9250600984015f5260205f20905f935b601f1984168510611d22576001945083601f19811610611d0a575b505050811b0160098201556110ce565b01515f1960f88460031b161c19169055838080611cfa565b81810151835560209485019460019093019290910190611cdf565b909150600984015f5260205f20601f840160051c810160208510611d86575b90849392915b601f830160051c82018110611d785750506110a1565b5f8155859450600101611d62565b5080611d5c565b015190508380611059565b9250600884015f5260205f20905f935b601f1984168510611deb576001945083601f19811610611dd3575b505050811b016008820155611070565b01515f1960f88460031b161c19169055838080611dc3565b81810151835560209485019460019093019290910190611da8565b909150600884015f5260205f20601f840160051c810160208510611e4f575b90849392915b601f830160051c82018110611e41575050611043565b5f8155859450600101611e2b565b5080611e25565b015190508380610ffb565b9250600784015f5260205f20905f935b601f1984168510611eb4576001945083601f19811610611e9c575b505050811b016007820155611012565b01515f1960f88460031b161c19169055838080611e8c565b81810151835560209485019460019093019290910190611e71565b909150600784015f5260205f20601f840160051c810160208510611f18575b90849392915b601f830160051c82018110611f0a575050610fe5565b5f8155859450600101611ef4565b5080611eee565b015190508380610f9e565b9250600684015f5260205f20905f935b601f1984168510611f7d576001945083601f19811610611f65575b505050811b016006820155610fb5565b01515f1960f88460031b161c19169055838080611f55565b81810151835560209485019460019093019290910190611f3a565b909150600684015f5260205f20601f840160051c810160208510611fe1575b90849392915b601f830160051c82018110611fd3575050610f88565b5f8155859450600101611fbd565b5080611fb7565b015190508380610f41565b9250600584015f5260205f20905f935b601f1984168510612046576001945083601f1981161061202e575b505050811b016005820155610f58565b01515f1960f88460031b161c1916905583808061201e565b81810151835560209485019460019093019290910190612003565b909150600584015f5260205f20601f840160051c8101602085106120aa575b90849392915b601f830160051c8201811061209c575050610f2b565b5f8155859450600101612086565b5080612080565b015190508380610ee5565b9250600484015f5260205f20905f935b601f198416851061210f576001945083601f198116106120f7575b505050811b016004820155610efc565b01515f1960f88460031b161c191690558380806120e7565b818101518355602094850194600190930192909101906120cc565b909150600484015f5260205f20601f840160051c810160208510612173575b90849392915b601f830160051c82018110612165575050610ecf565b5f815585945060010161214f565b5080612149565b015190508380610e88565b9250600384015f5260205f20905f935b601f19841685106121d8576001945083601f198116106121c0575b505050811b016003820155610e9f565b01515f1960f88460031b161c191690558380806121b0565b81810151835560209485019460019093019290910190612195565b909150600384015f5260205f20601f840160051c81016020851061223c575b90849392915b601f830160051c8201811061222e575050610e72565b5f8155859450600101612218565b5080612212565b015190508380610e2b565b9250600284015f5260205f20905f935b601f19841685106122a1576001945083601f19811610612289575b505050811b016002820155610e42565b01515f1960f88460031b161c19169055838080612279565b8181015183556020948501946001909301929091019061225e565b909150600284015f5260205f20601f840160051c810160208510612305575b90849392915b601f830160051c820181106122f7575050610e15565b5f81558594506001016122e1565b50806122db565b015190508380610dce565b9250600184015f5260205f20905f935b601f198416851061236a576001945083601f19811610612352575b505050811b016001820155610de5565b01515f1960f88460031b161c19169055838080612342565b81810151835560209485019460019093019290910190612327565b909150600184015f5260205f20601f840160051c8101602085106123ce575b90849392915b601f830160051c820181106123c0575050610db8565b5f81558594506001016123aa565b50806123a4565b015190508380610d74565b9250835f5260205f20905f935b601f198416851061242d576001945083601f19811610612415575b505050811b018155610d88565b01515f1960f88460031b161c19169055838080612408565b818101518355602094850194600190930192909101906123ed565b909150835f5260205f20601f840160051c81016020851061248e575b90849392915b601f830160051c82018110612480575050610d5e565b5f815585945060010161246a565b5080612464565b634e487b7160e01b5f525f60045260245ffd5b61028081019081106001600160401b038211176114e257604052565b90601f801991011681019081106001600160401b038211176114e257604052565b81601f820112156105c7578035906001600160401b0382116114e25760405192612519601f8401601f1916602001856124c4565b828452602083830101116105c757815f926020809301838601378301015290565b5f5b83811061254b5750505f910152565b818101518382015260200161253c565b8054821015612570575f5260205f2001905f90565b634e487b7160e01b5f52603260045260245ffd5b905f9182548110156125bd57601490838052027f290decd9548b62a8d60345a988386fc84ba6bc95484008f6362f93160ef3e563019190565b634e487b7160e01b83526032600452602483fd5b90600182811c921680156125ff575b60208310146125eb57565b634e487b7160e01b5f52602260045260245ffd5b91607f16916125e0565b9060405191825f825461261b816125d1565b9081845260209460019182811690815f14612688575060011461264a575b505050612648925003836124c4565b565b5f90815285812095935091905b81831061267057505061264893508201015f8080612639565b85548884018501529485019487945091830191612657565b9250505061264894925060ff191682840152151560051b8201015f8080612639565b906020916126c38151809281855285808601910161253a565b601f01601f1916010190565b6001600160401b0381116114e25760051b60200190565b80518210156125705760209160051b01019056fea26469706673582212202074a41bc6070a46db9ea240621c61b793b9b2a201c88934c3a7c716c2d3ee0564736f6c63430008150033",
  "immutableReferences": {},
  "source": "// SPDX-License-Identifier: MIT\r\npragma solidity ^0.8.0;\r\n\r\ncontract BC3 {\r\n    enum CommunicationType { V2V, V2P, V2I }\r\n    enum DeviceType { V, P, I }\r\n    enum Direction { North, South, West, East }\r\n\r\n    struct CommunicationSession {\r\n        string nodeId;\r\n        string commType; // Store as string now\r\n        string sessionKey; // Encryption session key\r\n        string encryptionAlgo;\r\n        string processingLatency; // in milliseconds as string\r\n        string date;\r\n        string time;\r\n        string primaryVTempId;\r\n        string primaryVVin;\r\n        string secondaryDeviceType;\r\n        string secondaryDeviceTempId;\r\n        string secondaryDeviceId; // VIN, MAC, or unique address\r\n        string latitude;\r\n        string longitude;\r\n        string altitude;\r\n        string speed;\r\n        string direction;\r\n        string alerts; // Combined alerts as a string\r\n        string otherData; // Combined otherData as a string (weather, light status, etc.)\r\n        string communicationMode;\r\n    }\r\n\r\n    CommunicationSession[] public sessions;\r\n\r\n    // Mapping from VIN to an array of session indexes\r\n    mapping(string => uint[]) public vinToSessions;\r\n\r\n    function storeSession(\r\n        string memory _nodeId,\r\n        string memory _commType, // Now a string\r\n        string memory _sessionKey,\r\n        string memory _encryptionAlgo,\r\n        string memory _processingLatency, // Store as string\r\n        string memory _date,\r\n        string memory _time,\r\n        string memory _tempId,\r\n        string memory _vin,\r\n        string memory _rType, // Store as string\r\n        string memory _rTempId,\r\n        string memory _rId,\r\n        string memory _latitude,\r\n        string memory _longitude,\r\n        string memory _altitude,\r\n        string memory _speed,\r\n        string memory _direction,\r\n        string memory _alerts,\r\n        string memory _otherData,\r\n        string memory _communicationMode\r\n    ) public {\r\n        CommunicationSession memory newSession = CommunicationSession({\r\n            nodeId: _nodeId,\r\n            commType: _commType,\r\n            sessionKey: _sessionKey,\r\n            encryptionAlgo: _encryptionAlgo,\r\n            processingLatency: _processingLatency,\r\n            date: _date,\r\n            time: _time,\r\n            primaryVTempId: _tempId,\r\n            primaryVVin: _vin,\r\n            secondaryDeviceType: _rType,\r\n            secondaryDeviceTempId: _rTempId,\r\n            secondaryDeviceId: _rId,\r\n            latitude: _latitude,\r\n            longitude: _longitude,\r\n            altitude: _altitude,\r\n            speed: _speed,\r\n            direction: _direction,\r\n            alerts: _alerts,\r\n            otherData: _otherData,\r\n            communicationMode: _communicationMode\r\n        });\r\n\r\n        sessions.push(newSession);\r\n\r\n        // Store the session index in the VIN-to-sessions mapping\r\n        vinToSessions[_vin].push(sessions.length - 1);\r\n    }\r\n\r\n    // Retrieve all sessions for a given VIN\r\n    function getSessionsByVIN(string memory _vin) public view returns (CommunicationSession[] memory) {\r\n        uint[] memory sessionIndexes = vinToSessions[_vin];\r\n        CommunicationSession[] memory result = new CommunicationSession[](sessionIndexes.length);\r\n        \r\n        for (uint i = 0; i < sessionIndexes.length; i++) {\r\n            result[i] = sessions[sessionIndexes[i]];\r\n        }\r\n        \r\n        return result;\r\n    }\r\n\r\n    // Helper function to get the total number of sessions stored\r\n    function getTotalSessions() public view returns (uint) {\r\n        return sessions.length;\r\n    }\r\n}\r\n",
  "sourcePath": "D:\\Documents\\Research - Done\\Digital Twin\\The Simulation\\contracts\\BC3.sol",
  "compiler": {
    "name": "solc",
    "version": "0.8.21+commit.d9974bed.Emscripten.clang"
  },
  "schemaVersion": "3.4.16",
  "updatedAt": "2025-07-31T20:32:38.626Z",
  "devdoc": {
    "kind": "dev",
    "methods": {},
    "version": 1
  },
  "userdoc": {
    "kind": "user",
    "methods": {},
    "version": 1
  }
}